:100000000C942A000C9434000C9434000C943400AA
:100010000C9434000C9434000C9434000C94340090
:100020000C9434000C9434000C9434000C94340080
:100030000C9434000C9434000C9434000C94340070
:100040000C9434000C9434000C9434000C94340060
:100050000C94340011241FBECFE5D8E0DEBFCDBF25
:100060000E941A030C94B2030C94000018BA2FEFEC
:1000700025BB22BB019721E030E0A90102C0440F5B
:10008000551F8A95E2F748BBCB0101978C3091054B
:10009000B0F4693071055CF06950704002C0220F05
:1000A000331F6A95E2F7822F809585BB089502C0C1
:1000B000220F331F8A95E2F7822F809582BB089525
:1000C00018BA8FEF85BB82BB0895AF92BF92CF92D3
:1000D000DF92EF92FF920F931F936C0181E090E00B
:1000E000B6010E94360000ED17E0C8010197F1F754
:1000F00076010894E108F10881E090E0B7010E94E0
:100100003600C8010197F1F78EEFA82E8FEFB82EB9
:10011000AC0CBD1C81E090E0B5010E943600C80126
:100120000197F1F782E090E0B7010E943600C80124
:100130000197F1F783E090E0B7010E943600C80113
:100140000197F1F784E090E0B7010E943600C80102
:100150000197F1F785E090E0B7010E943600C801F1
:100160000197F1F785E090E0B5010E943600C801E3
:100170000197F1F785E090E0B6010E943600C801D2
:100180000197F1F71F910F91FF90EF90DF90CF90C3
:10019000BF90AF900895AF92BF92CF92DF92EF924F
:1001A000FF920F931F937C012CEFC22E2FEFD22EC4
:1001B000C80ED91E81E090E0B6010E94360000ED25
:1001C00017E0C8010197F1F79BEFA92E9FEFB92E19
:1001D000AE0CBF1C81E090E0B5010E943600C80162
:1001E0000197F1F78AEF9FEFE80EF91E81E090E0AA
:1001F000B7010E943600C8010197F1F782E090E054
:10020000B6010E943600C8010197F1F782E090E044
:10021000B7010E943600C8010197F1F783E090E032
:10022000B6010E943600C8010197F1F783E090E023
:10023000B7010E943600C8010197F1F784E090E011
:10024000B6010E943600C8010197F1F784E090E002
:10025000B7010E943600C8010197F1F785E090E0F0
:10026000B6010E943600C8010197F1F785E090E0E1
:10027000B7010E943600C8010197F1F785E090E0D0
:10028000B5010E943600C8010197F1F71F910F9147
:10029000FF90EF90DF90CF90BF90AF900895AF9216
:1002A000BF92CF92DF92EF92FF920F931F936C0158
:1002B00048EFE42E4FEFF42EE80EF91E81E090E0B7
:1002C000B7010E94360000ED17E0C8010197F1F771
:1002D00037EFA32E3FEFB32EAC0CBD1C81E090E0B6
:1002E000B5010E943600C8010197F1F786EF9FEF34
:1002F000C80ED91E81E090E0B6010E943600C80108
:100300000197F1F782E090E0B7010E943600C80142
:100310000197F1F783E090E0B7010E943600C80131
:100320000197F1F783E090E0B5010E943600C80123
:100330000197F1F784E090E0B7010E943600C80110
:100340000197F1F785E090E0B7010E943600C801FF
:100350000197F1F785E090E0B5010E943600C801F1
:100360000197F1F785E090E0B6010E943600C801E0
:100370000197F1F71F910F91FF90EF90DF90CF90D1
:10038000BF90AF9008950F931F9381E090E06BE0D2
:1003900070E00E94360000ED17E0C8010197F1F708
:1003A00081E090E069E070E00E943600C8010197AA
:1003B000F1F782E090E06BE070E00E943600C80147
:1003C0000197F1F782E090E06AE070E00E94360069
:1003D000C8010197F1F783E090E06BE070E00E94C4
:1003E0003600C8010197F1F783E090E06AE070E021
:1003F0000E943600C8010197F1F783E090E069E0C0
:1004000070E00E943600C8010197F1F784E090E0A7
:100410006BE070E00E943600C8010197F1F784E0BC
:1004200090E069E070E00E943600C8010197F1F7A2
:1004300085E090E06AE070E00E943600C801019714
:10044000F1F785E090E069E070E00E943600C801B5
:100450000197F1F785E090E06BE070E00E943600D4
:10046000C8010197F1F71F910F910895AF92BF92C4
:10047000CF92DF92EF92FF920F931F937C0181E066
:1004800090E0B7010E94360000ED17E0C801019727
:10049000F1F75EEFC52E5FEFD52ECE0CDF1C81E0AD
:1004A00090E0B6010E943600C8010197F1F782E0A2
:1004B00090E0B7010E943600C8010197F1F782E091
:1004C00090E0B6010E943600C8010197F1F783E081
:1004D00090E0B7010E943600C8010197F1F783E070
:1004E00090E0B6010E943600C8010197F1F757016C
:1004F0000894A108B10883E090E0B5010E9436009D
:10050000C8010197F1F784E090E0B6010E9436003F
:10051000C8010197F1F784E090E0B7010E9436002E
:10052000C8010197F1F785E090E0B6010E9436001E
:10053000C8010197F1F785E090E0B7010E9436000D
:10054000C8010197F1F785E090E0B5010E943600FF
:10055000C8010197F1F71F910F91FF90EF90DF9085
:10056000CF90BF90AF900895AF92BF92CF92DF929D
:10057000EF92FF920F931F937C0181E090E0B7010F
:100580000E94360000ED17E0C8010197F1F76EEF09
:10059000A62E6FEFB62EAE0CBF1C81E090E0B50129
:1005A0000E943600C8010197F1F767010894C1085D
:1005B000D10881E090E0B6010E943600C8010197A1
:1005C000F1F782E090E0B7010E943600C801019780
:1005D000F1F783E090E0B7010E943600C80101976F
:1005E000F1F784E090E0B7010E943600C80101975E
:1005F000F1F785E090E0B7010E943600C80101974D
:10060000F1F785E090E0B5010E943600C80101973E
:10061000F1F785E090E0B6010E943600C80101972D
:10062000F1F71F910F91FF90EF90DF90CF90BF9067
:10063000AF9008958F929F92AF92BF92CF92DF9228
:10064000FF920F931F93CF93DF938FEF87BB84BBF2
:1006500081BB18BA85BB82BBC0E0D0E0FF24FA940E
:10066000F8EC8F2E912CE0E5AE2EE3ECBE2E70ED73
:10067000C72E77E0D72E05C08BE090E00E94650082
:100680002196C436D105C1F7C0E0D0E08BE090E000
:100690000E94CB002196C436D105C1F7C0E0D0E05E
:1006A0008BE090E00E944F012196C436D105C1F73E
:1006B00018BAF5BAF2BA84EF91E0F4013197F1F784
:1006C0000197D9F700E010E0C0E0D0E00EC08BE069
:1006D00090E00E9465008BE090E00E944F018BE06B
:1006E00090E00E94CB000F5F1F4F0436110579F791
:1006F000C5010197F1F72196C430D105B1F70BE0A0
:1007000010E018C0C8010E946500C8010E94CB001B
:10071000C8010E944F012196C436D10599F70150B6
:10072000104018BAF5BAF2BAC6010197F1F70115EF
:10073000110519F0C0E0D0E0E5CFC0E0D0E08BE0DB
:1007400090E00E94C30187E090E00E94360283E0BF
:1007500090E00E94B4022196C436D10581F7C0E032
:08076000D0E08FCFF894FFCF29
:00000001FF
