:100000000C942A000C9434000C9434000C943400AA
:100010000C9434000C9434000C9434000C94340090
:100020000C9434000C9434000C9434000C94340080
:100030000C9434000C9434000C9434000C94340070
:100040000C9434000C9434000C9434000C94340060
:100050000C94340011241FBECFE5D8E0DEBFCDBF25
:100060000E94D7010C9407020C94000084EA86BF1A
:1000700006B607FEFDCF81B120E030E0887F8830F2
:1000800011F421E030E0C901089583B984E886BF06
:1000900006B607FEFDCF81B120E030E0887F8831D1
:1000A00011F421E030E0C901089583B984E886BFE6
:1000B00006B607FEFDCF81B120E030E0887F8832B0
:1000C00011F421E030E0C901089584EC86BF06B642
:1000D00007FEFDCF83B190E0089584E886BF06B6A1
:1000E00007FEFDCF83B190E00895982F84EA86BF84
:1000F00006B607FEFDCF81B180ED83B984E886BFE7
:1001000006B607FEFDCF81B193B984E886BF06B677
:1001100007FEFDCF81B163B984E886BF06B607FE4E
:10012000FDCF81B184E986BF0895982F84EA86BF08
:1001300006B607FEFDCF81B180ED83B984E886BFA6
:1001400006B607FEFDCF81B193B984E886BF06B637
:1001500007FEFDCF81B184EA86BF06B607FEFDCF5C
:1001600081B181ED83B984E886BF06B607FEFDCF75
:1001700081B184E886BF06B607FEFDCF83B194E95E
:1001800096BF90E0089511B880E280B90895982F45
:1001900084EA86BF06B607FEFDCF93B984E886BF22
:1001A00006B607FEFDCF81B120E030E0887F8831C0
:1001B00011F421E030E0C9010895EF92FF920F930E
:1001C0001F93CF93DF93EC018B017A0182E090E0E3
:1001D0000E9495009983888381E090E00E949500B9
:1001E000F8019183808380E090E00E949500F70100
:1001F000918380838881998182FF03C08F71907081
:1002000002C08F73907099838883DF91CF911F9183
:100210000F91FF90EF900895CF92DF92EF92FF92AF
:100220000F931F938C017B016A0185E090E00E948F
:100230009500F8019183808384E090E00E9495000E
:10024000F7019183808386E090E00E949500F6019B
:10025000918380831F910F91FF90EF90DF90CF905B
:10026000089585E090E068E070E00E94750084E009
:1002700090E061E370E00E94750086E090E063E149
:1002800070E00E94750082E090E06CE070E00E94F7
:10029000750081E090E061E570E00E94750080E00B
:1002A00090E060E070E00E9475000895CF92DF92C8
:1002B000EF92FF920F931F93CF93DF9301E010E033
:1002C000FF24F394C0E0D0E0EE2488ECC82ED12CBB
:1002D00043C09D9918C00F5F1F4FF39484EF91E0C6
:1002E000F6013197F1F70197D9F78F2D6AE00E9457
:1002F000FB01992311F40A5F1F4F89E1F81619F4E5
:1003000001E010E0FF249E9915C02196E39484EF4C
:1003100091E0F6013197F1F70197D9F78E2D6AE058
:100320000E94FB01992309F426968CE38E1510F4A4
:10033000C1E0D0E00BBBC8BB82E090E0B8010E94F6
:10034000750081E090E0BE010E94750080E090E0C1
:1003500060E070E00E9475009C99BBCFDF91CF9167
:100360001F910F91FF90EF90DF90CF900895DF9352
:10037000CF9300D000D000D0CDB7DEB7CE0101962C
:10038000BE016D5F7F4FAE014B5F5F4F0E94DD008E
:100390008D8182BB8B8188BB89818BBB26960FB6F2
:1003A000F894DEBF0FBECDBFCF91DF910895CF93FC
:1003B000DF938FEF81BB87BB8ABB84B3877884BB15
:1003C00085B3886785BB11B880E280B980EA9FE079
:1003D00028EC30E0F9013197F1F70197D9F7C8EC33
:1003E000D0E09B9902C00E9456010E94B701CE0145
:1003F0000197F1F7F6CF991B79E004C0991F961782
:1004000008F0961B881F7A95C9F780950895F8948F
:02041000FFCF1C
:00000001FF
