:100000000C942A000C9434000C9434000C943400AA
:100010000C9434000C9434000C9434000C94340090
:100020000C9434000C9434000C9434000C94340080
:100030000C9434000C9434000C9434000C94340070
:100040000C9434000C9434000C9434000C94340060
:100050000C94340011241FBECFE5D8E0DEBFCDBF25
:100060000E9488000C94A0000C940000813091053F
:1000700011F481EE4BC08230910511F481ED46C040
:100080008330910511F481EB41C08430910511F466
:1000900081E73CC08530910511F482EE37C086308F
:1000A000910511F482ED32C08730910511F482EB95
:1000B0002DC08830910511F482E728C08930910560
:1000C00011F484EE23C08A30910511F484ED1EC032
:1000D0008B30910511F484EB19C08C30910511F42B
:1000E00084E714C08D30910511F488EE0FC08E3076
:1000F000910511F488ED0AC08F30910511F488EB59
:1001000005C0409711F488E701C080EF88BB0895CF
:100110000F931F93CF93DF938FEF87BB80E090E027
:1001200008EC10E006C0F8013197F1F70197D9F714
:10013000CE01EC0121960E94360084EF91E0F3CFCE
:04014000F894FFCF61
:00000001FF
