:100000000C942A000C9434000C9434000C943400AA
:100010000C9434000C9434000C9434000C94340090
:100020000C9434000C9434000C9434000C94340080
:100030000C9434000C9434000C9434000C94340070
:100040000C9434000C9434000C9434000C94340060
:100050000C94340011241FBECFE5D8E0DEBFCDBF25
:100060000E9436000C94E3000C9400008FEF87BBD5
:1000700084BB11BA18BA85BB81E088BB8EEF85BB03
:10008000FFCF0F931F93FC018B016AE070E00E9489
:10009000BC006150704021E030E0A90102C0440F73
:1000A000551F6A95E2F748BBCF016AE070E00E94F5
:1000B000BC000197A90102C0440F551F8A95E2F7C1
:1000C000CA01809585BBE0EAFFE0CF010197F1F717
:1000D000C8016AE070E00E94BC0061507040C90134
:1000E00002C0880F991F6A95E2F788BBC8016AE0D1
:1000F00070E00E94BC00019702C0220F331F8A9556
:10010000E2F7209525BB3197F1F71F910F910895E4
:10011000019721E030E0A90102C0440F551F8A95E4
:10012000E2F748BB6150704002C0220F331F6A954E
:10013000E2F7209525BB089518BA8FEF85BB089587
:1001400082E490E061E470E00E94410080E490E08D
:1001500067E370E00E9441008DE290E063E270E0AE
:100160000E94410084E290E062E270E00E9441005F
:1001700018BA8FEF85BB089597FB092E07260AD082
:1001800077FD04D00CD006D000201AF4709561954C
:100190007F4F0895F6F7909581959F4F0895AA1B7C
:1001A000BB1B51E107C0AA1FBB1FA617B70710F062
:1001B000A61BB70B881F991F5A95A9F78095909594
:0A01C000BC01CD010895F894FFCFB3
:00000001FF
