:100000000C942A000C9434000C9434000C943400AA
:100010000C9434000C9434000C9434000C94340090
:100020000C9434000C9434000C9434000C94340080
:100030000C9434000C9434000C9434000C94340070
:100040000C9434000C9434000C9434000C94340060
:100050000C94340011241FBECFE5D8E0DEBFCDBF25
:100060000E9488000C9417010C94000081309105C7
:1000700011F481EE4BC08230910511F481ED46C040
:100080008330910511F481EB41C08430910511F466
:1000900081E73CC08530910511F482EE37C086308F
:1000A000910511F482ED32C08730910511F482EB95
:1000B0002DC08830910511F482E728C08930910560
:1000C00011F484EE23C08A30910511F484ED1EC032
:1000D0008B30910511F484EB19C08C30910511F42B
:1000E00084E714C08D30910511F488EE0FC08E3076
:1000F000910511F488ED0AC08F30910511F488EB59
:1001000005C0409711F488E701C080EF88BB0895CF
:10011000CF92DF92EF92FF920F931F93CF93DF93D3
:100120008FEF87BB80E090E00E94360081B3807F34
:1001300081BB8FE082BB85E090E00E94360003E047
:1001400010E0C5E0D0E098ECC92ED12C809906C013
:100150000230110529F100E010E01AC0819906C0B3
:100160000130110501F101E010E01AC0829906C0CA
:1001700003301105B9F102E010E012C0839905C007
:100180000230110509F050C01BC00115110541F4E2
:10019000CE010197049710F42C962CC024972AC006
:1001A0000130110551F4CE010D97049710F42C97EE
:1001B00001C0249601E010E01DC00230110591F449
:1001C000C130D10549F0C530D10531F0C930D10574
:1001D00019F0CD30D10511F4239601C0219702E02A
:1001E00010E008C0CE0183709070892B11F4239722
:1001F00001C0219681E0E82EF12C80E090E00E9481
:100200003600CE010E94360088E893E1F60131976E
:10021000F1F70197D9F78AE090E0E80EF91E95E131
:10022000E916F10451F792CF03E010E0B9CFF8944A
:02023000FFCFFE
:00000001FF
